:100531005345542054494D45523A20256420732097
:1005410020005345542054494D45523A20256420FA
:100551007320005345542054494D45523A20256497
:10056100207300202020204F4646202020202020DC
:1005710020202000202020204F4E20202020202538
:10058100642073202000202020204F4E2020202096
:1005910020256420732000202020204F4E20202081
:1005A10020202564207300202020204F4E2020523F
:1005B10020203020732020004641542054494D45CD
:1005C1005220566572203220005374617274696E34
:0A05D100672E2E2E2020202020008F
:02035F008F43CA
:10036100E5437065C3E50D940AE50C9400500B75E7
:1003710067FF7568057569318035C3E50D940AE538
:100381000C94004016D3E50D9463E50C9400500BDA
:100391007567FF7568057569438014D3E50D94632E
:1003A100E50C940040187567FF75680575695485FB
:1003B1000C6A850D6B7B007A00794412005F7B002B
:1003C1007A007944E4FF1206C4E543700302045E37
:1003D100E509450870127567FF75680575696485DB
:1003E1000A6A850B6BFB8063C3E50B940AE50A94EB
:1003F1000050137567FF756805756975850A6A850B
:100401000B6B7B008045C3E50B940AE50A94004021
:100411001ED3E50B9463E50A940050137567FF75CD
:100421006805756987850A6A850B6B7B00801CD31B
:10043100E50B9463E50A940040187567FF7568053C
:10044100756998850A6A850B6B7B007A007944127D
:0D045100005F7B007A0079447F011206C431
:01045E00227B
:100700007567FF7568057569A87B007A00794312E3
:10071000005F7B007A0079437F011206C4D2957F87
:06072000641207DEC29521
:0107260022B0
:10067B00754201050BE50B7002050AE50B150B70B6
:10068B0002150A14450A7009120700850C0A850D1C
:10069B000BE5427003309212A292E433F5427F01D4
:1006AB0012035F7FE81207DE80D1E4F508F5097FBE
:0906BB000112035F7FD00207DE8B
:10045F00C295750C00750D0A750A00750B14E4F53D
:10046F0008F50912074E7567FF7568057569B97B41
:10047F00007A00792212005F7B007A007922E4FF74
:10048F001206C47567FF7568057569CA7B007A0027
:10049F00792212005F7B007A0079227F011206C455
:1004AF007FD01207DEE4FF12035F7F0112035F208C
:1004BF00921C7F021207DE20921475080075090145
:1004CF00850C0A850D0B7F0112035F12067B2090AE
:1004DF00277F021207DE209027D3E50D9401E50C4C
:1004EF009400401CE50D150D7002150CE4FF12036E
:1004FF005F7F0F1207DE80B72091057F021207DEA4
:10050F002091ACC3E50D94E7E50C940350A1050DC4
:10051F00E50D7002050CE4FF12035F7F0F1207DE7B
:02052F00808DBD
:10078E008F6C7F011207DEC2A6C2A4C2A5D2A685B7
:07079E006C80C2A6C2A42278
:1007A5008F6C7F011207DEC2A6D2A4C2A5D2A68590
:0707B5006C80C2A6C2A42261
:020771008D6A8F
:10077300EFC39410EF400624B0F56B80042480F59A
:0B0783006BAF6B12078EAF6A0207A578
:0606C4008B648A65896663
:1006CA00EFC454F0F567E4F568F569AF670567AB01
:1006DA0064AA65A9668569828568831205DBFD12AD
:1006EA0007710569E56970020568C39410E56864D5
:0506FA0080948040D651
:0106FF0022D8
:10074E007F0A1207DE7F3812078E7F3812078E7FE0
:10075E003812078E7F0612078E7F0C12078E7F01CE
:03076E0002078EF1
:1007BC007C007D0E120608EF1F70011E144E6005A2
:0607CC0000000080F22293
:0A07DE007C007D141206080207BC1F
:030000000207D222
:0C07D200787FE4F6D8FD75817702045FA3
:1005DB00BB010CE58229F582E5833AF583E02250D5
:1005EB0006E92582F8E622BBFE06E92582F8E2221F
:0D05FB00E58229F582E5833AF583E4932239
:10060800EF8DF0A4A8F0CF8CF0A428CE8DF0A42E06
:02061800FE22C0
:10000300E5732467F8E6057322786430070278679E
:10001300E475F00112064502061A2000EB7F2ED28A
:10002300008018EF540F2490D43440D4FF30040BD5
:10003300EF24BFB41A0050032461FFE57460021576
:10004300740577E5777002057630070D7864E475FB
:10005300F001120645EF0206330207277403D207A5
:100063008003E4C207F5738B648A658966E4F574DB
:10007300F576F577E57460077F2012003E80F5750D
:1000830075FFC201C200C202C203C205C206C20892
:1000930012000CFF700D3007057F0012004FAF7781
:1000A300AE7622B4255FC2D5C20412000CFF24D061
:1000B300B40A00501A75F00A787430D50508B6FFF3
:1000C3000106C6A426F620D5047002D20380D924E3
:1000D300CFB41A00EF5004C2E5D20402024FD2019A
:1000E30080C6D20080C0D20280BCD2D580BAD205ED
:1000F30080B47F2012003E2002077401B5740040D3
:10010300F1120003FF12003E020077D208D20680EC
:1001130095120003FB120003FA120003F94A4B7015
:100123000679207A037BFF20022EE574602A7E0085
:100133008E827583001205DB60060EEE657570F026
:10014300C2D5EBC0E0EAC0E0E9C0E0EE120296D00F
:10015300E0F9D0E0FAD0E0FB12061AFF60AAEBC088
:10016300E0EAC0E0E9C0E012003ED0E02401F9D0AB
:10017300E03400FAD0E0FBE5750460DCD575D98086
:10018300877BFF7A027992D202809C791080027970
:1001930008C206C2088008D2D5790A8004790AC247
:1001A300D5E575047002F575E4FAFDFEFF12000350
:1001B300FC7B08200113120003FD7B1030000A12A0
:1001C3000003FE120003FF7B20EC3382D592D5504F
:1001D30013C3E43000069FFFE49EFEE42001039D69
:1001E300FDE49CFCE4CBF8C201EC700CCFCECDCC8B
:1001F300E824F8F870F38017C3EF33FFEE33FEED16
:1002030033FDEC33FCEB33FB994002FB0FD8E9EBF6
:10021300300105F8D0E0C448B201C0E00AEC4D4E0D
:100223004F78207B0070C2EAB5750040BCC0E01275
:100233000298D0F0D0E0200104C4C0E0C4B201C0F1
:10024300F0120027D0F0D5F0EB020077120655012B
:100253001453018E5800E54C00E14201924F019A7C
:0F02630044019A4900FA4301A0550184460184E1
:100272004501844703405000E92D00ED2E01102B6B
:1002820000F123010E2003292A00A94800000108D9
:100292003F3F3F00790AA2D5200314300509B91067
:1002A200020404B9080104A2D52006025001042068
:1002B20002689202B574005034C0E07F2030031906
:1002C2007F30A20272067205500F1202EFC202C202
:1002D20006C205C2087F30800F300503E9C0E01274
:1002E200003E300503D0E0F9D0E0B574CC300517FC
:1002F2007F30B9100C12003E7F583004077F78809F
:1003020003B9080312003E3002057F2D02003E7F32
:10031200202008F87F2B2006F322920280CF286E3D
:10032200756C6C2900D2011200033001F8C2017809
:100332007430D50108F60200A92D50434958120025
:10034200032403B405004001E490033B9312002F01
:0D035200743A12002FD20375740402018E5C
:10061A00BB010689828A83E0225002E722BBFE02DE
:09062A00E32289828A83E4932211
:10063300BB010689828A83F0225002F722BBFE01A6
:02064300F322A0
:10064500FAE6FB0808E6F925F0F618E6CA3AF622B6
:10065500D083D082F8E4937012740193700DA3A334
:1006650093F8740193F5828883E473740293686048
:06067500EFA3A3A380DF48
:10072700EFB40A07740D120732740A309811A899AA
:10073700B8130CC2983098FDA899C298B811F63032
:0707470099FDC299F599220A
:00000001FF
